{
  "_format": "hh-sol-artifact-1",
  "contractName": "ERC20",
  "sourceName": "contracts/Erc20.sol",
  "abi": [
    {
      "inputs": [
        {
          "internalType": "string",
          "name": "name_",
          "type": "string"
        },
        {
          "internalType": "string",
          "name": "symbol_",
          "type": "string"
        },
        {
          "internalType": "uint256",
          "name": "maxSupply_",
          "type": "uint256"
        },
        {
          "internalType": "address",
          "name": "initialOwner_",
          "type": "address"
        }
      ],
      "stateMutability": "nonpayable",
      "type": "constructor"
    },
    {
      "inputs": [
        {
          "internalType": "address",
          "name": "owner",
          "type": "address"
        }
      ],
      "name": "OwnableInvalidOwner",
      "type": "error"
    },
    {
      "inputs": [
        {
          "internalType": "address",
          "name": "account",
          "type": "address"
        }
      ],
      "name": "OwnableUnauthorizedAccount",
      "type": "error"
    },
    {
      "anonymous": false,
      "inputs": [
        {
          "indexed": true,
          "internalType": "address",
          "name": "owner",
          "type": "address"
        },
        {
          "indexed": true,
          "internalType": "address",
          "name": "spender",
          "type": "address"
        },
        {
          "indexed": false,
          "internalType": "uint256",
          "name": "value",
          "type": "uint256"
        }
      ],
      "name": "Approval",
      "type": "event"
    },
    {
      "anonymous": false,
      "inputs": [
        {
          "indexed": true,
          "internalType": "address",
          "name": "to",
          "type": "address"
        },
        {
          "indexed": false,
          "internalType": "uint256",
          "name": "value",
          "type": "uint256"
        }
      ],
      "name": "Mint",
      "type": "event"
    },
    {
      "anonymous": false,
      "inputs": [
        {
          "indexed": true,
          "internalType": "address",
          "name": "previousOwner",
          "type": "address"
        },
        {
          "indexed": true,
          "internalType": "address",
          "name": "newOwner",
          "type": "address"
        }
      ],
      "name": "OwnershipTransferred",
      "type": "event"
    },
    {
      "anonymous": false,
      "inputs": [
        {
          "indexed": true,
          "internalType": "address",
          "name": "from",
          "type": "address"
        },
        {
          "indexed": true,
          "internalType": "address",
          "name": "to",
          "type": "address"
        },
        {
          "indexed": false,
          "internalType": "uint256",
          "name": "value",
          "type": "uint256"
        }
      ],
      "name": "Transfer",
      "type": "event"
    },
    {
      "inputs": [
        {
          "internalType": "address",
          "name": "owner",
          "type": "address"
        },
        {
          "internalType": "address",
          "name": "spender",
          "type": "address"
        }
      ],
      "name": "allowance",
      "outputs": [
        {
          "internalType": "uint256",
          "name": "",
          "type": "uint256"
        }
      ],
      "stateMutability": "view",
      "type": "function"
    },
    {
      "inputs": [
        {
          "internalType": "address",
          "name": "spender",
          "type": "address"
        },
        {
          "internalType": "uint256",
          "name": "amount",
          "type": "uint256"
        }
      ],
      "name": "approve",
      "outputs": [
        {
          "internalType": "bool",
          "name": "",
          "type": "bool"
        }
      ],
      "stateMutability": "nonpayable",
      "type": "function"
    },
    {
      "inputs": [
        {
          "internalType": "address",
          "name": "account",
          "type": "address"
        }
      ],
      "name": "balanceOf",
      "outputs": [
        {
          "internalType": "uint256",
          "name": "",
          "type": "uint256"
        }
      ],
      "stateMutability": "view",
      "type": "function"
    },
    {
      "inputs": [],
      "name": "decimals",
      "outputs": [
        {
          "internalType": "uint8",
          "name": "",
          "type": "uint8"
        }
      ],
      "stateMutability": "pure",
      "type": "function"
    },
    {
      "inputs": [],
      "name": "maxSupply",
      "outputs": [
        {
          "internalType": "uint256",
          "name": "",
          "type": "uint256"
        }
      ],
      "stateMutability": "view",
      "type": "function"
    },
    {
      "inputs": [
        {
          "internalType": "address",
          "name": "account",
          "type": "address"
        },
        {
          "internalType": "uint256",
          "name": "amount",
          "type": "uint256"
        }
      ],
      "name": "mint",
      "outputs": [],
      "stateMutability": "nonpayable",
      "type": "function"
    },
    {
      "inputs": [],
      "name": "name",
      "outputs": [
        {
          "internalType": "string",
          "name": "",
          "type": "string"
        }
      ],
      "stateMutability": "view",
      "type": "function"
    },
    {
      "inputs": [],
      "name": "owner",
      "outputs": [
        {
          "internalType": "address",
          "name": "",
          "type": "address"
        }
      ],
      "stateMutability": "view",
      "type": "function"
    },
    {
      "inputs": [],
      "name": "renounceOwnership",
      "outputs": [],
      "stateMutability": "nonpayable",
      "type": "function"
    },
    {
      "inputs": [],
      "name": "symbol",
      "outputs": [
        {
          "internalType": "string",
          "name": "",
          "type": "string"
        }
      ],
      "stateMutability": "view",
      "type": "function"
    },
    {
      "inputs": [],
      "name": "totalSupply",
      "outputs": [
        {
          "internalType": "uint256",
          "name": "",
          "type": "uint256"
        }
      ],
      "stateMutability": "view",
      "type": "function"
    },
    {
      "inputs": [
        {
          "internalType": "address",
          "name": "to",
          "type": "address"
        },
        {
          "internalType": "uint256",
          "name": "amount",
          "type": "uint256"
        }
      ],
      "name": "transfer",
      "outputs": [
        {
          "internalType": "bool",
          "name": "",
          "type": "bool"
        }
      ],
      "stateMutability": "nonpayable",
      "type": "function"
    },
    {
      "inputs": [
        {
          "internalType": "address",
          "name": "from",
          "type": "address"
        },
        {
          "internalType": "address",
          "name": "to",
          "type": "address"
        },
        {
          "internalType": "uint256",
          "name": "amount",
          "type": "uint256"
        }
      ],
      "name": "transferFrom",
      "outputs": [
        {
          "internalType": "bool",
          "name": "",
          "type": "bool"
        }
      ],
      "stateMutability": "nonpayable",
      "type": "function"
    },
    {
      "inputs": [
        {
          "internalType": "address",
          "name": "newOwner",
          "type": "address"
        }
      ],
      "name": "transferOwnership",
      "outputs": [],
      "stateMutability": "nonpayable",
      "type": "function"
    }
  ],
  "bytecode": "0x608060405234801561001057600080fd5b50604051611b79380380611b79833981810160405281019061003291906103b2565b80600073ffffffffffffffffffffffffffffffffffffffff168173ffffffffffffffffffffffffffffffffffffffff16036100a55760006040517f1e4fbdf700000000000000000000000000000000000000000000000000000000815260040161009c9190610460565b60405180910390fd5b6100b4816100e560201b60201c565b5083600590816100c49190610692565b5082600690816100d49190610692565b508160048190555050505050610764565b60008060009054906101000a900473ffffffffffffffffffffffffffffffffffffffff169050816000806101000a81548173ffffffffffffffffffffffffffffffffffffffff021916908373ffffffffffffffffffffffffffffffffffffffff1602179055508173ffffffffffffffffffffffffffffffffffffffff168173ffffffffffffffffffffffffffffffffffffffff167f8be0079c531659141344cd1fd0a4f28419497f9722a3daafe3b4186f6b6457e060405160405180910390a35050565b6000604051905090565b600080fd5b600080fd5b600080fd5b600080fd5b6000601f19601f8301169050919050565b7f4e487b7100000000000000000000000000000000000000000000000000000000600052604160045260246000fd5b610210826101c7565b810181811067ffffffffffffffff8211171561022f5761022e6101d8565b5b80604052505050565b60006102426101a9565b905061024e8282610207565b919050565b600067ffffffffffffffff82111561026e5761026d6101d8565b5b610277826101c7565b9050602081019050919050565b60005b838110156102a2578082015181840152602081019050610287565b60008484015250505050565b60006102c16102bc84610253565b610238565b9050828152602081018484840111156102dd576102dc6101c2565b5b6102e8848285610284565b509392505050565b600082601f830112610305576103046101bd565b5b81516103158482602086016102ae565b91505092915050565b6000819050919050565b6103318161031e565b811461033c57600080fd5b50565b60008151905061034e81610328565b92915050565b600073ffffffffffffffffffffffffffffffffffffffff82169050919050565b600061037f82610354565b9050919050565b61038f81610374565b811461039a57600080fd5b50565b6000815190506103ac81610386565b92915050565b600080600080608085870312156103cc576103cb6101b3565b5b600085015167ffffffffffffffff8111156103ea576103e96101b8565b5b6103f6878288016102f0565b945050602085015167ffffffffffffffff811115610417576104166101b8565b5b610423878288016102f0565b93505060406104348782880161033f565b92505060606104458782880161039d565b91505092959194509250565b61045a81610374565b82525050565b60006020820190506104756000830184610451565b92915050565b600081519050919050565b7f4e487b7100000000000000000000000000000000000000000000000000000000600052602260045260246000fd5b600060028204905060018216806104cd57607f821691505b6020821081036104e0576104df610486565b5b50919050565b60008190508160005260206000209050919050565b60006020601f8301049050919050565b600082821b905092915050565b6000600883026105487fffffffffffffffffffffffffffffffffffffffffffffffffffffffffffffffff8261050b565b610552868361050b565b95508019841693508086168417925050509392505050565b6000819050919050565b600061058f61058a6105858461031e565b61056a565b61031e565b9050919050565b6000819050919050565b6105a983610574565b6105bd6105b582610596565b848454610518565b825550505050565b600090565b6105d26105c5565b6105dd8184846105a0565b505050565b5b81811015610601576105f66000826105ca565b6001810190506105e3565b5050565b601f82111561064657610617816104e6565b610620846104fb565b8101602085101561062f578190505b61064361063b856104fb565b8301826105e2565b50505b505050565b600082821c905092915050565b60006106696000198460080261064b565b1980831691505092915050565b60006106828383610658565b9150826002028217905092915050565b61069b8261047b565b67ffffffffffffffff8111156106b4576106b36101d8565b5b6106be82546104b5565b6106c9828285610605565b600060209050601f8311600181146106fc57600084156106ea578287015190505b6106f48582610676565b86555061075c565b601f19841661070a866104e6565b60005b828110156107325784890151825560018201915060208501945060208101905061070d565b8683101561074f578489015161074b601f891682610658565b8355505b6001600288020188555050505b505050505050565b611406806107736000396000f3fe608060405234801561001057600080fd5b50600436106100ea5760003560e01c8063715018a61161008c578063a9059cbb11610066578063a9059cbb1461023b578063d5abeb011461026b578063dd62ed3e14610289578063f2fde38b146102b9576100ea565b8063715018a6146101f55780638da5cb5b146101ff57806395d89b411461021d576100ea565b806323b872dd116100c857806323b872dd1461015b578063313ce5671461018b57806340c10f19146101a957806370a08231146101c5576100ea565b806306fdde03146100ef578063095ea7b31461010d57806318160ddd1461013d575b600080fd5b6100f76102d5565b6040516101049190610da9565b60405180910390f35b61012760048036038101906101229190610e64565b610367565b6040516101349190610ebf565b60405180910390f35b6101456104c7565b6040516101529190610ee9565b60405180910390f35b61017560048036038101906101709190610f04565b6104d1565b6040516101829190610ebf565b60405180910390f35b6101936106cd565b6040516101a09190610f73565b60405180910390f35b6101c360048036038101906101be9190610e64565b6106d6565b005b6101df60048036038101906101da9190610f8e565b6107e9565b6040516101ec9190610ee9565b60405180910390f35b6101fd610832565b005b610207610846565b6040516102149190610fca565b60405180910390f35b61022561086f565b6040516102329190610da9565b60405180910390f35b61025560048036038101906102509190610e64565b610901565b6040516102629190610ebf565b60405180910390f35b610273610918565b6040516102809190610ee9565b60405180910390f35b6102a3600480360381019061029e9190610fe5565b610922565b6040516102b09190610ee9565b60405180910390f35b6102d360048036038101906102ce9190610f8e565b6109a9565b005b6060600580546102e490611054565b80601f016020809104026020016040519081016040528092919081815260200182805461031090611054565b801561035d5780601f106103325761010080835404028352916020019161035d565b820191906000526020600020905b81548152906001019060200180831161034057829003601f168201915b5050505050905090565b60008073ffffffffffffffffffffffffffffffffffffffff168373ffffffffffffffffffffffffffffffffffffffff16036103d7576040517f08c379a00000000000000000000000000000000000000000000000000000000081526004016103ce906110f7565b60405180910390fd5b81600260003373ffffffffffffffffffffffffffffffffffffffff1673ffffffffffffffffffffffffffffffffffffffff16815260200190815260200160002060008573ffffffffffffffffffffffffffffffffffffffff1673ffffffffffffffffffffffffffffffffffffffff168152602001908152602001600020819055508273ffffffffffffffffffffffffffffffffffffffff163373ffffffffffffffffffffffffffffffffffffffff167f8c5be1e5ebec7d5bd14f71427d1e84f3dd0314c0f7b2291e5b200ac8c7c3b925846040516104b59190610ee9565b60405180910390a36001905092915050565b6000600354905090565b6000806104de8533610922565b90507fffffffffffffffffffffffffffffffffffffffffffffffffffffffffffffffff81146106b6578281101561054a576040517f08c379a000000000000000000000000000000000000000000000000000000000815260040161054190611163565b60405180910390fd5b600073ffffffffffffffffffffffffffffffffffffffff168573ffffffffffffffffffffffffffffffffffffffff16036105b9576040517f08c379a00000000000000000000000000000000000000000000000000000000081526004016105b0906111f5565b60405180910390fd5b82816105c59190611244565b600260008773ffffffffffffffffffffffffffffffffffffffff1673ffffffffffffffffffffffffffffffffffffffff16815260200190815260200160002060003373ffffffffffffffffffffffffffffffffffffffff1673ffffffffffffffffffffffffffffffffffffffff168152602001908152602001600020819055503373ffffffffffffffffffffffffffffffffffffffff168573ffffffffffffffffffffffffffffffffffffffff167f8c5be1e5ebec7d5bd14f71427d1e84f3dd0314c0f7b2291e5b200ac8c7c3b92585846106a09190611244565b6040516106ad9190610ee9565b60405180910390a35b6106c1858585610a2f565b60019150509392505050565b60006012905090565b600454816003546106e79190611278565b1115610728576040517f08c379a000000000000000000000000000000000000000000000000000000000815260040161071f9061131e565b60405180910390fd5b806003600082825461073a9190611278565b9250508190555080600160008473ffffffffffffffffffffffffffffffffffffffff1673ffffffffffffffffffffffffffffffffffffffff16815260200190815260200160002060008282546107909190611278565b925050819055508173ffffffffffffffffffffffffffffffffffffffff167f0f6798a560793a54c3bcfe86a93cde1e73087d944c0ea20544137d4121396885826040516107dd9190610ee9565b60405180910390a25050565b6000600160008373ffffffffffffffffffffffffffffffffffffffff1673ffffffffffffffffffffffffffffffffffffffff168152602001908152602001600020549050919050565b61083a610bc6565b6108446000610c4d565b565b60008060009054906101000a900473ffffffffffffffffffffffffffffffffffffffff16905090565b60606006805461087e90611054565b80601f01602080910402602001604051908101604052809291908181526020018280546108aa90611054565b80156108f75780601f106108cc576101008083540402835291602001916108f7565b820191906000526020600020905b8154815290600101906020018083116108da57829003601f168201915b5050505050905090565b600061090e338484610a2f565b6001905092915050565b6000600454905090565b6000600260008473ffffffffffffffffffffffffffffffffffffffff1673ffffffffffffffffffffffffffffffffffffffff16815260200190815260200160002060008373ffffffffffffffffffffffffffffffffffffffff1673ffffffffffffffffffffffffffffffffffffffff16815260200190815260200160002054905092915050565b6109b1610bc6565b600073ffffffffffffffffffffffffffffffffffffffff168173ffffffffffffffffffffffffffffffffffffffff1603610a235760006040517f1e4fbdf7000000000000000000000000000000000000000000000000000000008152600401610a1a9190610fca565b60405180910390fd5b610a2c81610c4d565b50565b6000600160008573ffffffffffffffffffffffffffffffffffffffff1673ffffffffffffffffffffffffffffffffffffffff16815260200190815260200160002054905081811015610ab6576040517f08c379a0000000000000000000000000000000000000000000000000000000008152600401610aad906113b0565b60405180910390fd5b8181610ac29190611244565b600160008673ffffffffffffffffffffffffffffffffffffffff1673ffffffffffffffffffffffffffffffffffffffff1681526020019081526020016000208190555081600160008573ffffffffffffffffffffffffffffffffffffffff1673ffffffffffffffffffffffffffffffffffffffff1681526020019081526020016000206000828254610b549190611278565b925050819055508273ffffffffffffffffffffffffffffffffffffffff168473ffffffffffffffffffffffffffffffffffffffff167fddf252ad1be2c89b69c2b068fc378daa952ba7f163c4a11628f55a4df523b3ef84604051610bb89190610ee9565b60405180910390a350505050565b610bce610d11565b73ffffffffffffffffffffffffffffffffffffffff16610bec610846565b73ffffffffffffffffffffffffffffffffffffffff1614610c4b57610c0f610d11565b6040517f118cdaa7000000000000000000000000000000000000000000000000000000008152600401610c429190610fca565b60405180910390fd5b565b60008060009054906101000a900473ffffffffffffffffffffffffffffffffffffffff169050816000806101000a81548173ffffffffffffffffffffffffffffffffffffffff021916908373ffffffffffffffffffffffffffffffffffffffff1602179055508173ffffffffffffffffffffffffffffffffffffffff168173ffffffffffffffffffffffffffffffffffffffff167f8be0079c531659141344cd1fd0a4f28419497f9722a3daafe3b4186f6b6457e060405160405180910390a35050565b600033905090565b600081519050919050565b600082825260208201905092915050565b60005b83811015610d53578082015181840152602081019050610d38565b60008484015250505050565b6000601f19601f8301169050919050565b6000610d7b82610d19565b610d858185610d24565b9350610d95818560208601610d35565b610d9e81610d5f565b840191505092915050565b60006020820190508181036000830152610dc38184610d70565b905092915050565b600080fd5b600073ffffffffffffffffffffffffffffffffffffffff82169050919050565b6000610dfb82610dd0565b9050919050565b610e0b81610df0565b8114610e1657600080fd5b50565b600081359050610e2881610e02565b92915050565b6000819050919050565b610e4181610e2e565b8114610e4c57600080fd5b50565b600081359050610e5e81610e38565b92915050565b60008060408385031215610e7b57610e7a610dcb565b5b6000610e8985828601610e19565b9250506020610e9a85828601610e4f565b9150509250929050565b60008115159050919050565b610eb981610ea4565b82525050565b6000602082019050610ed46000830184610eb0565b92915050565b610ee381610e2e565b82525050565b6000602082019050610efe6000830184610eda565b92915050565b600080600060608486031215610f1d57610f1c610dcb565b5b6000610f2b86828701610e19565b9350506020610f3c86828701610e19565b9250506040610f4d86828701610e4f565b9150509250925092565b600060ff82169050919050565b610f6d81610f57565b82525050565b6000602082019050610f886000830184610f64565b92915050565b600060208284031215610fa457610fa3610dcb565b5b6000610fb284828501610e19565b91505092915050565b610fc481610df0565b82525050565b6000602082019050610fdf6000830184610fbb565b92915050565b60008060408385031215610ffc57610ffb610dcb565b5b600061100a85828601610e19565b925050602061101b85828601610e19565b9150509250929050565b7f4e487b7100000000000000000000000000000000000000000000000000000000600052602260045260246000fd5b6000600282049050600182168061106c57607f821691505b60208210810361107f5761107e611025565b5b50919050565b7f45524332303a20617070726f766520746f20746865207a65726f20616464726560008201527f7373000000000000000000000000000000000000000000000000000000000000602082015250565b60006110e1602283610d24565b91506110ec82611085565b604082019050919050565b60006020820190508181036000830152611110816110d4565b9050919050565b7f45524332303a20696e73756666696369656e7420616c6c6f77616e6365000000600082015250565b600061114d601d83610d24565b915061115882611117565b602082019050919050565b6000602082019050818103600083015261117c81611140565b9050919050565b7f45524332303a20617070726f76652066726f6d20746865207a65726f2061646460008201527f7265737300000000000000000000000000000000000000000000000000000000602082015250565b60006111df602483610d24565b91506111ea82611183565b604082019050919050565b6000602082019050818103600083015261120e816111d2565b9050919050565b7f4e487b7100000000000000000000000000000000000000000000000000000000600052601160045260246000fd5b600061124f82610e2e565b915061125a83610e2e565b925082820390508181111561127257611271611215565b5b92915050565b600061128382610e2e565b915061128e83610e2e565b92508282019050808211156112a6576112a5611215565b5b92915050565b7f45524332303a20746f74616c20737570706c792065786365656473206d61782060008201527f737570706c790000000000000000000000000000000000000000000000000000602082015250565b6000611308602683610d24565b9150611313826112ac565b604082019050919050565b60006020820190508181036000830152611337816112fb565b9050919050565b7f45524332303a207472616e7366657220616d6f756e742065786365656473206260008201527f616c616e63650000000000000000000000000000000000000000000000000000602082015250565b600061139a602683610d24565b91506113a58261133e565b604082019050919050565b600060208201905081810360008301526113c98161138d565b905091905056fea2646970667358221220906c1d32dc073b0f85f97219a22087df323fe8ceb8e0d3e6f88c0a94df80db8e64736f6c634300081b0033",
  "linkReferences": {},
  "deployedLinkReferences": {}
}