{
  "_format": "hh-sol-artifact-1",
  "contractName": "TokenFactory",
  "sourceName": "contracts/TokenFactory.sol",
  "abi": [
    {
      "inputs": [
        {
          "internalType": "address",
          "name": "initialOwner",
          "type": "address"
        }
      ],
      "stateMutability": "nonpayable",
      "type": "constructor"
    },
    {
      "inputs": [
        {
          "internalType": "address",
          "name": "owner",
          "type": "address"
        }
      ],
      "name": "OwnableInvalidOwner",
      "type": "error"
    },
    {
      "inputs": [
        {
          "internalType": "address",
          "name": "account",
          "type": "address"
        }
      ],
      "name": "OwnableUnauthorizedAccount",
      "type": "error"
    },
    {
      "inputs": [],
      "name": "ReentrancyGuardReentrantCall",
      "type": "error"
    },
    {
      "anonymous": false,
      "inputs": [
        {
          "indexed": false,
          "internalType": "uint256",
          "name": "amount",
          "type": "uint256"
        }
      ],
      "name": "FeeUpdated",
      "type": "event"
    },
    {
      "anonymous": false,
      "inputs": [
        {
          "indexed": true,
          "internalType": "address",
          "name": "to",
          "type": "address"
        },
        {
          "indexed": false,
          "internalType": "uint256",
          "name": "amount",
          "type": "uint256"
        }
      ],
      "name": "FeesWithdrawn",
      "type": "event"
    },
    {
      "anonymous": false,
      "inputs": [
        {
          "indexed": true,
          "internalType": "address",
          "name": "previousOwner",
          "type": "address"
        },
        {
          "indexed": true,
          "internalType": "address",
          "name": "newOwner",
          "type": "address"
        }
      ],
      "name": "OwnershipTransferred",
      "type": "event"
    },
    {
      "anonymous": false,
      "inputs": [
        {
          "indexed": true,
          "internalType": "address",
          "name": "tokenAddress",
          "type": "address"
        },
        {
          "indexed": false,
          "internalType": "string",
          "name": "name",
          "type": "string"
        },
        {
          "indexed": false,
          "internalType": "string",
          "name": "symbol",
          "type": "string"
        },
        {
          "indexed": false,
          "internalType": "string",
          "name": "description",
          "type": "string"
        },
        {
          "indexed": false,
          "internalType": "string",
          "name": "createdBy",
          "type": "string"
        },
        {
          "indexed": false,
          "internalType": "string",
          "name": "image",
          "type": "string"
        },
        {
          "indexed": false,
          "internalType": "uint256",
          "name": "createdAt",
          "type": "uint256"
        }
      ],
      "name": "TokenCreated",
      "type": "event"
    },
    {
      "inputs": [
        {
          "internalType": "string",
          "name": "name",
          "type": "string"
        },
        {
          "internalType": "string",
          "name": "symbol",
          "type": "string"
        },
        {
          "internalType": "uint256",
          "name": "maxSupply",
          "type": "uint256"
        },
        {
          "internalType": "string",
          "name": "description",
          "type": "string"
        },
        {
          "internalType": "string",
          "name": "createdBy",
          "type": "string"
        },
        {
          "internalType": "string",
          "name": "image",
          "type": "string"
        }
      ],
      "name": "createToken",
      "outputs": [],
      "stateMutability": "payable",
      "type": "function"
    },
    {
      "inputs": [],
      "name": "fee",
      "outputs": [
        {
          "internalType": "uint256",
          "name": "",
          "type": "uint256"
        }
      ],
      "stateMutability": "view",
      "type": "function"
    },
    {
      "inputs": [
        {
          "internalType": "address",
          "name": "tokenAddress",
          "type": "address"
        }
      ],
      "name": "getTokenMetadata",
      "outputs": [
        {
          "components": [
            {
              "internalType": "string",
              "name": "name",
              "type": "string"
            },
            {
              "internalType": "string",
              "name": "symbol",
              "type": "string"
            },
            {
              "internalType": "string",
              "name": "description",
              "type": "string"
            },
            {
              "internalType": "string",
              "name": "createdBy",
              "type": "string"
            },
            {
              "internalType": "string",
              "name": "image",
              "type": "string"
            },
            {
              "internalType": "uint256",
              "name": "createdAt",
              "type": "uint256"
            }
          ],
          "internalType": "struct TokenFactory.TokenMetadata",
          "name": "",
          "type": "tuple"
        }
      ],
      "stateMutability": "view",
      "type": "function"
    },
    {
      "inputs": [],
      "name": "getTokens",
      "outputs": [
        {
          "internalType": "address[]",
          "name": "",
          "type": "address[]"
        }
      ],
      "stateMutability": "view",
      "type": "function"
    },
    {
      "inputs": [],
      "name": "owner",
      "outputs": [
        {
          "internalType": "address",
          "name": "",
          "type": "address"
        }
      ],
      "stateMutability": "view",
      "type": "function"
    },
    {
      "inputs": [],
      "name": "renounceOwnership",
      "outputs": [],
      "stateMutability": "nonpayable",
      "type": "function"
    },
    {
      "inputs": [
        {
          "internalType": "uint256",
          "name": "newFee",
          "type": "uint256"
        }
      ],
      "name": "setFees",
      "outputs": [],
      "stateMutability": "nonpayable",
      "type": "function"
    },
    {
      "inputs": [
        {
          "internalType": "address",
          "name": "",
          "type": "address"
        }
      ],
      "name": "tokenMetadata",
      "outputs": [
        {
          "internalType": "string",
          "name": "name",
          "type": "string"
        },
        {
          "internalType": "string",
          "name": "symbol",
          "type": "string"
        },
        {
          "internalType": "string",
          "name": "description",
          "type": "string"
        },
        {
          "internalType": "string",
          "name": "createdBy",
          "type": "string"
        },
        {
          "internalType": "string",
          "name": "image",
          "type": "string"
        },
        {
          "internalType": "uint256",
          "name": "createdAt",
          "type": "uint256"
        }
      ],
      "stateMutability": "view",
      "type": "function"
    },
    {
      "inputs": [
        {
          "internalType": "uint256",
          "name": "",
          "type": "uint256"
        }
      ],
      "name": "tokens",
      "outputs": [
        {
          "internalType": "address",
          "name": "",
          "type": "address"
        }
      ],
      "stateMutability": "view",
      "type": "function"
    },
    {
      "inputs": [
        {
          "internalType": "address",
          "name": "newOwner",
          "type": "address"
        }
      ],
      "name": "transferOwnership",
      "outputs": [],
      "stateMutability": "nonpayable",
      "type": "function"
    },
    {
      "inputs": [
        {
          "internalType": "address payable",
          "name": "to",
          "type": "address"
        }
      ],
      "name": "withdrawFees",
      "outputs": [],
      "stateMutability": "nonpayable",
      "type": "function"
    }
  ],
  "bytecode": "0x608060405267016345785d8a000060025534801561001c57600080fd5b50604051613ecb380380613ecb833981810160405281019061003e91906101f5565b80600073ffffffffffffffffffffffffffffffffffffffff168173ffffffffffffffffffffffffffffffffffffffff16036100b15760006040517f1e4fbdf70000000000000000000000000000000000000000000000000000000081526004016100a89190610231565b60405180910390fd5b6100c0816100ce60201b60201c565b50600180819055505061024c565b60008060009054906101000a900473ffffffffffffffffffffffffffffffffffffffff169050816000806101000a81548173ffffffffffffffffffffffffffffffffffffffff021916908373ffffffffffffffffffffffffffffffffffffffff1602179055508173ffffffffffffffffffffffffffffffffffffffff168173ffffffffffffffffffffffffffffffffffffffff167f8be0079c531659141344cd1fd0a4f28419497f9722a3daafe3b4186f6b6457e060405160405180910390a35050565b600080fd5b600073ffffffffffffffffffffffffffffffffffffffff82169050919050565b60006101c282610197565b9050919050565b6101d2816101b7565b81146101dd57600080fd5b50565b6000815190506101ef816101c9565b92915050565b60006020828403121561020b5761020a610192565b5b6000610219848285016101e0565b91505092915050565b61022b816101b7565b82525050565b60006020820190506102466000830184610222565b92915050565b613c708061025b6000396000f3fe60806040526004361061009c5760003560e01c80638da5cb5b116100645780638da5cb5b14610189578063aa6ca808146101b4578063c00f14ab146101df578063d09f07bc1461021c578063ddca3f4314610238578063f2fde38b146102635761009c565b8063164e68de146100a15780633d18678e146100ca5780634f64b2be146100f35780636fecdf2414610130578063715018a614610172575b600080fd5b3480156100ad57600080fd5b506100c860048036038101906100c3919061130a565b61028c565b005b3480156100d657600080fd5b506100f160048036038101906100ec919061136d565b6103eb565b005b3480156100ff57600080fd5b5061011a6004803603810190610115919061136d565b610477565b60405161012791906113bb565b60405180910390f35b34801561013c57600080fd5b5061015760048036038101906101529190611402565b6104b6565b604051610169969594939291906114ce565b60405180910390f35b34801561017e57600080fd5b5061018761079a565b005b34801561019557600080fd5b5061019e6107ae565b6040516101ab91906113bb565b60405180910390f35b3480156101c057600080fd5b506101c96107d7565b6040516101d69190611610565b60405180910390f35b3480156101eb57600080fd5b5061020660048036038101906102019190611402565b610865565b6040516102139190611730565b60405180910390f35b61023660048036038101906102319190611887565b610c59565b005b34801561024457600080fd5b5061024d610f7f565b60405161025a91906119a0565b60405180910390f35b34801561026f57600080fd5b5061028a60048036038101906102859190611402565b610f85565b005b61029461100b565b61029c611092565b6000479050600081116102e4576040517f08c379a00000000000000000000000000000000000000000000000000000000081526004016102db90611a07565b60405180910390fd5b60008273ffffffffffffffffffffffffffffffffffffffff168260405161030a90611a58565b60006040518083038185875af1925050503d8060008114610347576040519150601f19603f3d011682016040523d82523d6000602084013e61034c565b606091505b5050905080610390576040517f08c379a000000000000000000000000000000000000000000000000000000000815260040161038790611ab9565b60405180910390fd5b8273ffffffffffffffffffffffffffffffffffffffff167fc0819c13be868895eb93e40eaceb96de976442fa1d404e5c55f14bb65a8c489a836040516103d691906119a0565b60405180910390a250506103e86110d8565b50565b6103f361100b565b60008111610436576040517f08c379a000000000000000000000000000000000000000000000000000000000815260040161042d90611b25565b60405180910390fd5b806002819055507f8c4d35e54a3f2ef1134138fd8ea3daee6a3c89e10d2665996babdf70261e2c768160405161046c91906119a0565b60405180910390a150565b6003818154811061048757600080fd5b906000526020600020016000915054906101000a900473ffffffffffffffffffffffffffffffffffffffff1681565b60046020528060005260406000206000915090508060000180546104d990611b74565b80601f016020809104026020016040519081016040528092919081815260200182805461050590611b74565b80156105525780601f1061052757610100808354040283529160200191610552565b820191906000526020600020905b81548152906001019060200180831161053557829003601f168201915b50505050509080600101805461056790611b74565b80601f016020809104026020016040519081016040528092919081815260200182805461059390611b74565b80156105e05780601f106105b5576101008083540402835291602001916105e0565b820191906000526020600020905b8154815290600101906020018083116105c357829003601f168201915b5050505050908060020180546105f590611b74565b80601f016020809104026020016040519081016040528092919081815260200182805461062190611b74565b801561066e5780601f106106435761010080835404028352916020019161066e565b820191906000526020600020905b81548152906001019060200180831161065157829003601f168201915b50505050509080600301805461068390611b74565b80601f01602080910402602001604051908101604052809291908181526020018280546106af90611b74565b80156106fc5780601f106106d1576101008083540402835291602001916106fc565b820191906000526020600020905b8154815290600101906020018083116106df57829003601f168201915b50505050509080600401805461071190611b74565b80601f016020809104026020016040519081016040528092919081815260200182805461073d90611b74565b801561078a5780601f1061075f5761010080835404028352916020019161078a565b820191906000526020600020905b81548152906001019060200180831161076d57829003601f168201915b5050505050908060050154905086565b6107a261100b565b6107ac60006110e1565b565b60008060009054906101000a900473ffffffffffffffffffffffffffffffffffffffff16905090565b6060600380548060200260200160405190810160405280929190818152602001828054801561085b57602002820191906000526020600020905b8160009054906101000a900473ffffffffffffffffffffffffffffffffffffffff1673ffffffffffffffffffffffffffffffffffffffff1681526020019060010190808311610811575b5050505050905090565b61086d611255565b600073ffffffffffffffffffffffffffffffffffffffff168273ffffffffffffffffffffffffffffffffffffffff16036108dc576040517f08c379a00000000000000000000000000000000000000000000000000000000081526004016108d390611bf1565b60405180910390fd5b6108e5826111a5565b610924576040517f08c379a000000000000000000000000000000000000000000000000000000000815260040161091b90611c5d565b60405180910390fd5b600460008373ffffffffffffffffffffffffffffffffffffffff1673ffffffffffffffffffffffffffffffffffffffff1681526020019081526020016000206040518060c001604052908160008201805461097e90611b74565b80601f01602080910402602001604051908101604052809291908181526020018280546109aa90611b74565b80156109f75780601f106109cc576101008083540402835291602001916109f7565b820191906000526020600020905b8154815290600101906020018083116109da57829003601f168201915b50505050508152602001600182018054610a1090611b74565b80601f0160208091040260200160405190810160405280929190818152602001828054610a3c90611b74565b8015610a895780601f10610a5e57610100808354040283529160200191610a89565b820191906000526020600020905b815481529060010190602001808311610a6c57829003601f168201915b50505050508152602001600282018054610aa290611b74565b80601f0160208091040260200160405190810160405280929190818152602001828054610ace90611b74565b8015610b1b5780601f10610af057610100808354040283529160200191610b1b565b820191906000526020600020905b815481529060010190602001808311610afe57829003601f168201915b50505050508152602001600382018054610b3490611b74565b80601f0160208091040260200160405190810160405280929190818152602001828054610b6090611b74565b8015610bad5780601f10610b8257610100808354040283529160200191610bad565b820191906000526020600020905b815481529060010190602001808311610b9057829003601f168201915b50505050508152602001600482018054610bc690611b74565b80601f0160208091040260200160405190810160405280929190818152602001828054610bf290611b74565b8015610c3f5780601f10610c1457610100808354040283529160200191610c3f565b820191906000526020600020905b815481529060010190602001808311610c2257829003601f168201915b505050505081526020016005820154815250509050919050565b6002543414610c9d576040517f08c379a0000000000000000000000000000000000000000000000000000000008152600401610c9490611cc9565b60405180910390fd5b6000865111610ce1576040517f08c379a0000000000000000000000000000000000000000000000000000000008152600401610cd890611d35565b60405180910390fd5b6000855111610d25576040517f08c379a0000000000000000000000000000000000000000000000000000000008152600401610d1c90611da1565b60405180910390fd5b600086868633604051610d379061128b565b610d449493929190611dc1565b604051809103906000f080158015610d60573d6000803e3d6000fd5b50905060008190506003819080600181540180825580915050600190039060005260206000200160009091909190916101000a81548173ffffffffffffffffffffffffffffffffffffffff021916908373ffffffffffffffffffffffffffffffffffffffff1602179055506040518060c0016040528089815260200188815260200186815260200185815260200184815260200142815250600460008373ffffffffffffffffffffffffffffffffffffffff1673ffffffffffffffffffffffffffffffffffffffff1681526020019081526020016000206000820151816000019081610e4c9190611fc0565b506020820151816001019081610e629190611fc0565b506040820151816002019081610e789190611fc0565b506060820151816003019081610e8e9190611fc0565b506080820151816004019081610ea49190611fc0565b5060a082015181600501559050508173ffffffffffffffffffffffffffffffffffffffff1663f2fde38b336040518263ffffffff1660e01b8152600401610eeb91906113bb565b600060405180830381600087803b158015610f0557600080fd5b505af1158015610f19573d6000803e3d6000fd5b505050508073ffffffffffffffffffffffffffffffffffffffff167f0b581ede0e08a33dfbd9bc599b97c3839cb4c7613256fa71d0ab7b3d24b36c4d898988888842604051610f6d969594939291906114ce565b60405180910390a25050505050505050565b60025481565b610f8d61100b565b600073ffffffffffffffffffffffffffffffffffffffff168173ffffffffffffffffffffffffffffffffffffffff1603610fff5760006040517f1e4fbdf7000000000000000000000000000000000000000000000000000000008152600401610ff691906113bb565b60405180910390fd5b611008816110e1565b50565b61101361124d565b73ffffffffffffffffffffffffffffffffffffffff166110316107ae565b73ffffffffffffffffffffffffffffffffffffffff16146110905761105461124d565b6040517f118cdaa700000000000000000000000000000000000000000000000000000000815260040161108791906113bb565b60405180910390fd5b565b6002600154036110ce576040517f3ee5aeb500000000000000000000000000000000000000000000000000000000815260040160405180910390fd5b6002600181905550565b60018081905550565b60008060009054906101000a900473ffffffffffffffffffffffffffffffffffffffff169050816000806101000a81548173ffffffffffffffffffffffffffffffffffffffff021916908373ffffffffffffffffffffffffffffffffffffffff1602179055508173ffffffffffffffffffffffffffffffffffffffff168173ffffffffffffffffffffffffffffffffffffffff167f8be0079c531659141344cd1fd0a4f28419497f9722a3daafe3b4186f6b6457e060405160405180910390a35050565b600080600090505b600380549050811015611242578273ffffffffffffffffffffffffffffffffffffffff16600382815481106111e5576111e4612092565b5b9060005260206000200160009054906101000a900473ffffffffffffffffffffffffffffffffffffffff1673ffffffffffffffffffffffffffffffffffffffff1603611235576001915050611248565b80806001019150506111ad565b50600090505b919050565b600033905090565b6040518060c001604052806060815260200160608152602001606081526020016060815260200160608152602001600081525090565b611b79806120c283390190565b6000604051905090565b600080fd5b600080fd5b600073ffffffffffffffffffffffffffffffffffffffff82169050919050565b60006112d7826112ac565b9050919050565b6112e7816112cc565b81146112f257600080fd5b50565b600081359050611304816112de565b92915050565b6000602082840312156113205761131f6112a2565b5b600061132e848285016112f5565b91505092915050565b6000819050919050565b61134a81611337565b811461135557600080fd5b50565b60008135905061136781611341565b92915050565b600060208284031215611383576113826112a2565b5b600061139184828501611358565b91505092915050565b60006113a5826112ac565b9050919050565b6113b58161139a565b82525050565b60006020820190506113d060008301846113ac565b92915050565b6113df8161139a565b81146113ea57600080fd5b50565b6000813590506113fc816113d6565b92915050565b600060208284031215611418576114176112a2565b5b6000611426848285016113ed565b91505092915050565b600081519050919050565b600082825260208201905092915050565b60005b8381101561146957808201518184015260208101905061144e565b60008484015250505050565b6000601f19601f8301169050919050565b60006114918261142f565b61149b818561143a565b93506114ab81856020860161144b565b6114b481611475565b840191505092915050565b6114c881611337565b82525050565b600060c08201905081810360008301526114e88189611486565b905081810360208301526114fc8188611486565b905081810360408301526115108187611486565b905081810360608301526115248186611486565b905081810360808301526115388185611486565b905061154760a08301846114bf565b979650505050505050565b600081519050919050565b600082825260208201905092915050565b6000819050602082019050919050565b6115878161139a565b82525050565b6000611599838361157e565b60208301905092915050565b6000602082019050919050565b60006115bd82611552565b6115c7818561155d565b93506115d28361156e565b8060005b838110156116035781516115ea888261158d565b97506115f5836115a5565b9250506001810190506115d6565b5085935050505092915050565b6000602082019050818103600083015261162a81846115b2565b905092915050565b600082825260208201905092915050565b600061164e8261142f565b6116588185611632565b935061166881856020860161144b565b61167181611475565b840191505092915050565b61168581611337565b82525050565b600060c08301600083015184820360008601526116a88282611643565b915050602083015184820360208601526116c28282611643565b915050604083015184820360408601526116dc8282611643565b915050606083015184820360608601526116f68282611643565b915050608083015184820360808601526117108282611643565b91505060a083015161172560a086018261167c565b508091505092915050565b6000602082019050818103600083015261174a818461168b565b905092915050565b600080fd5b600080fd5b7f4e487b7100000000000000000000000000000000000000000000000000000000600052604160045260246000fd5b61179482611475565b810181811067ffffffffffffffff821117156117b3576117b261175c565b5b80604052505050565b60006117c6611298565b90506117d2828261178b565b919050565b600067ffffffffffffffff8211156117f2576117f161175c565b5b6117fb82611475565b9050602081019050919050565b82818337600083830152505050565b600061182a611825846117d7565b6117bc565b90508281526020810184848401111561184657611845611757565b5b611851848285611808565b509392505050565b600082601f83011261186e5761186d611752565b5b813561187e848260208601611817565b91505092915050565b60008060008060008060c087890312156118a4576118a36112a2565b5b600087013567ffffffffffffffff8111156118c2576118c16112a7565b5b6118ce89828a01611859565b965050602087013567ffffffffffffffff8111156118ef576118ee6112a7565b5b6118fb89828a01611859565b955050604061190c89828a01611358565b945050606087013567ffffffffffffffff81111561192d5761192c6112a7565b5b61193989828a01611859565b935050608087013567ffffffffffffffff81111561195a576119596112a7565b5b61196689828a01611859565b92505060a087013567ffffffffffffffff811115611987576119866112a7565b5b61199389828a01611859565b9150509295509295509295565b60006020820190506119b560008301846114bf565b92915050565b7f4e6f206665657320746f20776974686472617700000000000000000000000000600082015250565b60006119f160138361143a565b91506119fc826119bb565b602082019050919050565b60006020820190508181036000830152611a20816119e4565b9050919050565b600081905092915050565b50565b6000611a42600083611a27565b9150611a4d82611a32565b600082019050919050565b6000611a6382611a35565b9150819050919050565b7f4661696c656420746f2077697468647261772066656573000000000000000000600082015250565b6000611aa360178361143a565b9150611aae82611a6d565b602082019050919050565b60006020820190508181036000830152611ad281611a96565b9050919050565b7f466565206d7573742062652067726561746572207468616e207a65726f000000600082015250565b6000611b0f601d8361143a565b9150611b1a82611ad9565b602082019050919050565b60006020820190508181036000830152611b3e81611b02565b9050919050565b7f4e487b7100000000000000000000000000000000000000000000000000000000600052602260045260246000fd5b60006002820490506001821680611b8c57607f821691505b602082108103611b9f57611b9e611b45565b5b50919050565b7f496e76616c696420746f6b656e20616464726573730000000000000000000000600082015250565b6000611bdb60158361143a565b9150611be682611ba5565b602082019050919050565b60006020820190508181036000830152611c0a81611bce565b9050919050565b7f546f6b656e20646f6573206e6f74206578697374000000000000000000000000600082015250565b6000611c4760148361143a565b9150611c5282611c11565b602082019050919050565b60006020820190508181036000830152611c7681611c3a565b9050919050565b7f496e76616c69642066656520616d6f756e740000000000000000000000000000600082015250565b6000611cb360128361143a565b9150611cbe82611c7d565b602082019050919050565b60006020820190508181036000830152611ce281611ca6565b9050919050565b7f546f6b656e206e616d652063616e6e6f7420626520656d707479000000000000600082015250565b6000611d1f601a8361143a565b9150611d2a82611ce9565b602082019050919050565b60006020820190508181036000830152611d4e81611d12565b9050919050565b7f546f6b656e2073796d626f6c2063616e6e6f7420626520656d70747900000000600082015250565b6000611d8b601c8361143a565b9150611d9682611d55565b602082019050919050565b60006020820190508181036000830152611dba81611d7e565b9050919050565b60006080820190508181036000830152611ddb8187611486565b90508181036020830152611def8186611486565b9050611dfe60408301856114bf565b611e0b60608301846113ac565b95945050505050565b60008190508160005260206000209050919050565b60006020601f8301049050919050565b600082821b905092915050565b600060088302611e767fffffffffffffffffffffffffffffffffffffffffffffffffffffffffffffffff82611e39565b611e808683611e39565b95508019841693508086168417925050509392505050565b6000819050919050565b6000611ebd611eb8611eb384611337565b611e98565b611337565b9050919050565b6000819050919050565b611ed783611ea2565b611eeb611ee382611ec4565b848454611e46565b825550505050565b600090565b611f00611ef3565b611f0b818484611ece565b505050565b5b81811015611f2f57611f24600082611ef8565b600181019050611f11565b5050565b601f821115611f7457611f4581611e14565b611f4e84611e29565b81016020851015611f5d578190505b611f71611f6985611e29565b830182611f10565b50505b505050565b600082821c905092915050565b6000611f9760001984600802611f79565b1980831691505092915050565b6000611fb08383611f86565b9150826002028217905092915050565b611fc98261142f565b67ffffffffffffffff811115611fe257611fe161175c565b5b611fec8254611b74565b611ff7828285611f33565b600060209050601f83116001811461202a5760008415612018578287015190505b6120228582611fa4565b86555061208a565b601f19841661203886611e14565b60005b828110156120605784890151825560018201915060208501945060208101905061203b565b8683101561207d5784890151612079601f891682611f86565b8355505b6001600288020188555050505b505050505050565b7f4e487b7100000000000000000000000000000000000000000000000000000000600052603260045260246000fdfe608060405234801561001057600080fd5b50604051611b79380380611b79833981810160405281019061003291906103b2565b80600073ffffffffffffffffffffffffffffffffffffffff168173ffffffffffffffffffffffffffffffffffffffff16036100a55760006040517f1e4fbdf700000000000000000000000000000000000000000000000000000000815260040161009c9190610460565b60405180910390fd5b6100b4816100e560201b60201c565b5083600590816100c49190610692565b5082600690816100d49190610692565b508160048190555050505050610764565b60008060009054906101000a900473ffffffffffffffffffffffffffffffffffffffff169050816000806101000a81548173ffffffffffffffffffffffffffffffffffffffff021916908373ffffffffffffffffffffffffffffffffffffffff1602179055508173ffffffffffffffffffffffffffffffffffffffff168173ffffffffffffffffffffffffffffffffffffffff167f8be0079c531659141344cd1fd0a4f28419497f9722a3daafe3b4186f6b6457e060405160405180910390a35050565b6000604051905090565b600080fd5b600080fd5b600080fd5b600080fd5b6000601f19601f8301169050919050565b7f4e487b7100000000000000000000000000000000000000000000000000000000600052604160045260246000fd5b610210826101c7565b810181811067ffffffffffffffff8211171561022f5761022e6101d8565b5b80604052505050565b60006102426101a9565b905061024e8282610207565b919050565b600067ffffffffffffffff82111561026e5761026d6101d8565b5b610277826101c7565b9050602081019050919050565b60005b838110156102a2578082015181840152602081019050610287565b60008484015250505050565b60006102c16102bc84610253565b610238565b9050828152602081018484840111156102dd576102dc6101c2565b5b6102e8848285610284565b509392505050565b600082601f830112610305576103046101bd565b5b81516103158482602086016102ae565b91505092915050565b6000819050919050565b6103318161031e565b811461033c57600080fd5b50565b60008151905061034e81610328565b92915050565b600073ffffffffffffffffffffffffffffffffffffffff82169050919050565b600061037f82610354565b9050919050565b61038f81610374565b811461039a57600080fd5b50565b6000815190506103ac81610386565b92915050565b600080600080608085870312156103cc576103cb6101b3565b5b600085015167ffffffffffffffff8111156103ea576103e96101b8565b5b6103f6878288016102f0565b945050602085015167ffffffffffffffff811115610417576104166101b8565b5b610423878288016102f0565b93505060406104348782880161033f565b92505060606104458782880161039d565b91505092959194509250565b61045a81610374565b82525050565b60006020820190506104756000830184610451565b92915050565b600081519050919050565b7f4e487b7100000000000000000000000000000000000000000000000000000000600052602260045260246000fd5b600060028204905060018216806104cd57607f821691505b6020821081036104e0576104df610486565b5b50919050565b60008190508160005260206000209050919050565b60006020601f8301049050919050565b600082821b905092915050565b6000600883026105487fffffffffffffffffffffffffffffffffffffffffffffffffffffffffffffffff8261050b565b610552868361050b565b95508019841693508086168417925050509392505050565b6000819050919050565b600061058f61058a6105858461031e565b61056a565b61031e565b9050919050565b6000819050919050565b6105a983610574565b6105bd6105b582610596565b848454610518565b825550505050565b600090565b6105d26105c5565b6105dd8184846105a0565b505050565b5b81811015610601576105f66000826105ca565b6001810190506105e3565b5050565b601f82111561064657610617816104e6565b610620846104fb565b8101602085101561062f578190505b61064361063b856104fb565b8301826105e2565b50505b505050565b600082821c905092915050565b60006106696000198460080261064b565b1980831691505092915050565b60006106828383610658565b9150826002028217905092915050565b61069b8261047b565b67ffffffffffffffff8111156106b4576106b36101d8565b5b6106be82546104b5565b6106c9828285610605565b600060209050601f8311600181146106fc57600084156106ea578287015190505b6106f48582610676565b86555061075c565b601f19841661070a866104e6565b60005b828110156107325784890151825560018201915060208501945060208101905061070d565b8683101561074f578489015161074b601f891682610658565b8355505b6001600288020188555050505b505050505050565b611406806107736000396000f3fe608060405234801561001057600080fd5b50600436106100ea5760003560e01c8063715018a61161008c578063a9059cbb11610066578063a9059cbb1461023b578063d5abeb011461026b578063dd62ed3e14610289578063f2fde38b146102b9576100ea565b8063715018a6146101f55780638da5cb5b146101ff57806395d89b411461021d576100ea565b806323b872dd116100c857806323b872dd1461015b578063313ce5671461018b57806340c10f19146101a957806370a08231146101c5576100ea565b806306fdde03146100ef578063095ea7b31461010d57806318160ddd1461013d575b600080fd5b6100f76102d5565b6040516101049190610da9565b60405180910390f35b61012760048036038101906101229190610e64565b610367565b6040516101349190610ebf565b60405180910390f35b6101456104c7565b6040516101529190610ee9565b60405180910390f35b61017560048036038101906101709190610f04565b6104d1565b6040516101829190610ebf565b60405180910390f35b6101936106cd565b6040516101a09190610f73565b60405180910390f35b6101c360048036038101906101be9190610e64565b6106d6565b005b6101df60048036038101906101da9190610f8e565b6107e9565b6040516101ec9190610ee9565b60405180910390f35b6101fd610832565b005b610207610846565b6040516102149190610fca565b60405180910390f35b61022561086f565b6040516102329190610da9565b60405180910390f35b61025560048036038101906102509190610e64565b610901565b6040516102629190610ebf565b60405180910390f35b610273610918565b6040516102809190610ee9565b60405180910390f35b6102a3600480360381019061029e9190610fe5565b610922565b6040516102b09190610ee9565b60405180910390f35b6102d360048036038101906102ce9190610f8e565b6109a9565b005b6060600580546102e490611054565b80601f016020809104026020016040519081016040528092919081815260200182805461031090611054565b801561035d5780601f106103325761010080835404028352916020019161035d565b820191906000526020600020905b81548152906001019060200180831161034057829003601f168201915b5050505050905090565b60008073ffffffffffffffffffffffffffffffffffffffff168373ffffffffffffffffffffffffffffffffffffffff16036103d7576040517f08c379a00000000000000000000000000000000000000000000000000000000081526004016103ce906110f7565b60405180910390fd5b81600260003373ffffffffffffffffffffffffffffffffffffffff1673ffffffffffffffffffffffffffffffffffffffff16815260200190815260200160002060008573ffffffffffffffffffffffffffffffffffffffff1673ffffffffffffffffffffffffffffffffffffffff168152602001908152602001600020819055508273ffffffffffffffffffffffffffffffffffffffff163373ffffffffffffffffffffffffffffffffffffffff167f8c5be1e5ebec7d5bd14f71427d1e84f3dd0314c0f7b2291e5b200ac8c7c3b925846040516104b59190610ee9565b60405180910390a36001905092915050565b6000600354905090565b6000806104de8533610922565b90507fffffffffffffffffffffffffffffffffffffffffffffffffffffffffffffffff81146106b6578281101561054a576040517f08c379a000000000000000000000000000000000000000000000000000000000815260040161054190611163565b60405180910390fd5b600073ffffffffffffffffffffffffffffffffffffffff168573ffffffffffffffffffffffffffffffffffffffff16036105b9576040517f08c379a00000000000000000000000000000000000000000000000000000000081526004016105b0906111f5565b60405180910390fd5b82816105c59190611244565b600260008773ffffffffffffffffffffffffffffffffffffffff1673ffffffffffffffffffffffffffffffffffffffff16815260200190815260200160002060003373ffffffffffffffffffffffffffffffffffffffff1673ffffffffffffffffffffffffffffffffffffffff168152602001908152602001600020819055503373ffffffffffffffffffffffffffffffffffffffff168573ffffffffffffffffffffffffffffffffffffffff167f8c5be1e5ebec7d5bd14f71427d1e84f3dd0314c0f7b2291e5b200ac8c7c3b92585846106a09190611244565b6040516106ad9190610ee9565b60405180910390a35b6106c1858585610a2f565b60019150509392505050565b60006012905090565b600454816003546106e79190611278565b1115610728576040517f08c379a000000000000000000000000000000000000000000000000000000000815260040161071f9061131e565b60405180910390fd5b806003600082825461073a9190611278565b9250508190555080600160008473ffffffffffffffffffffffffffffffffffffffff1673ffffffffffffffffffffffffffffffffffffffff16815260200190815260200160002060008282546107909190611278565b925050819055508173ffffffffffffffffffffffffffffffffffffffff167f0f6798a560793a54c3bcfe86a93cde1e73087d944c0ea20544137d4121396885826040516107dd9190610ee9565b60405180910390a25050565b6000600160008373ffffffffffffffffffffffffffffffffffffffff1673ffffffffffffffffffffffffffffffffffffffff168152602001908152602001600020549050919050565b61083a610bc6565b6108446000610c4d565b565b60008060009054906101000a900473ffffffffffffffffffffffffffffffffffffffff16905090565b60606006805461087e90611054565b80601f01602080910402602001604051908101604052809291908181526020018280546108aa90611054565b80156108f75780601f106108cc576101008083540402835291602001916108f7565b820191906000526020600020905b8154815290600101906020018083116108da57829003601f168201915b5050505050905090565b600061090e338484610a2f565b6001905092915050565b6000600454905090565b6000600260008473ffffffffffffffffffffffffffffffffffffffff1673ffffffffffffffffffffffffffffffffffffffff16815260200190815260200160002060008373ffffffffffffffffffffffffffffffffffffffff1673ffffffffffffffffffffffffffffffffffffffff16815260200190815260200160002054905092915050565b6109b1610bc6565b600073ffffffffffffffffffffffffffffffffffffffff168173ffffffffffffffffffffffffffffffffffffffff1603610a235760006040517f1e4fbdf7000000000000000000000000000000000000000000000000000000008152600401610a1a9190610fca565b60405180910390fd5b610a2c81610c4d565b50565b6000600160008573ffffffffffffffffffffffffffffffffffffffff1673ffffffffffffffffffffffffffffffffffffffff16815260200190815260200160002054905081811015610ab6576040517f08c379a0000000000000000000000000000000000000000000000000000000008152600401610aad906113b0565b60405180910390fd5b8181610ac29190611244565b600160008673ffffffffffffffffffffffffffffffffffffffff1673ffffffffffffffffffffffffffffffffffffffff1681526020019081526020016000208190555081600160008573ffffffffffffffffffffffffffffffffffffffff1673ffffffffffffffffffffffffffffffffffffffff1681526020019081526020016000206000828254610b549190611278565b925050819055508273ffffffffffffffffffffffffffffffffffffffff168473ffffffffffffffffffffffffffffffffffffffff167fddf252ad1be2c89b69c2b068fc378daa952ba7f163c4a11628f55a4df523b3ef84604051610bb89190610ee9565b60405180910390a350505050565b610bce610d11565b73ffffffffffffffffffffffffffffffffffffffff16610bec610846565b73ffffffffffffffffffffffffffffffffffffffff1614610c4b57610c0f610d11565b6040517f118cdaa7000000000000000000000000000000000000000000000000000000008152600401610c429190610fca565b60405180910390fd5b565b60008060009054906101000a900473ffffffffffffffffffffffffffffffffffffffff169050816000806101000a81548173ffffffffffffffffffffffffffffffffffffffff021916908373ffffffffffffffffffffffffffffffffffffffff1602179055508173ffffffffffffffffffffffffffffffffffffffff168173ffffffffffffffffffffffffffffffffffffffff167f8be0079c531659141344cd1fd0a4f28419497f9722a3daafe3b4186f6b6457e060405160405180910390a35050565b600033905090565b600081519050919050565b600082825260208201905092915050565b60005b83811015610d53578082015181840152602081019050610d38565b60008484015250505050565b6000601f19601f8301169050919050565b6000610d7b82610d19565b610d858185610d24565b9350610d95818560208601610d35565b610d9e81610d5f565b840191505092915050565b60006020820190508181036000830152610dc38184610d70565b905092915050565b600080fd5b600073ffffffffffffffffffffffffffffffffffffffff82169050919050565b6000610dfb82610dd0565b9050919050565b610e0b81610df0565b8114610e1657600080fd5b50565b600081359050610e2881610e02565b92915050565b6000819050919050565b610e4181610e2e565b8114610e4c57600080fd5b50565b600081359050610e5e81610e38565b92915050565b60008060408385031215610e7b57610e7a610dcb565b5b6000610e8985828601610e19565b9250506020610e9a85828601610e4f565b9150509250929050565b60008115159050919050565b610eb981610ea4565b82525050565b6000602082019050610ed46000830184610eb0565b92915050565b610ee381610e2e565b82525050565b6000602082019050610efe6000830184610eda565b92915050565b600080600060608486031215610f1d57610f1c610dcb565b5b6000610f2b86828701610e19565b9350506020610f3c86828701610e19565b9250506040610f4d86828701610e4f565b9150509250925092565b600060ff82169050919050565b610f6d81610f57565b82525050565b6000602082019050610f886000830184610f64565b92915050565b600060208284031215610fa457610fa3610dcb565b5b6000610fb284828501610e19565b91505092915050565b610fc481610df0565b82525050565b6000602082019050610fdf6000830184610fbb565b92915050565b60008060408385031215610ffc57610ffb610dcb565b5b600061100a85828601610e19565b925050602061101b85828601610e19565b9150509250929050565b7f4e487b7100000000000000000000000000000000000000000000000000000000600052602260045260246000fd5b6000600282049050600182168061106c57607f821691505b60208210810361107f5761107e611025565b5b50919050565b7f45524332303a20617070726f766520746f20746865207a65726f20616464726560008201527f7373000000000000000000000000000000000000000000000000000000000000602082015250565b60006110e1602283610d24565b91506110ec82611085565b604082019050919050565b60006020820190508181036000830152611110816110d4565b9050919050565b7f45524332303a20696e73756666696369656e7420616c6c6f77616e6365000000600082015250565b600061114d601d83610d24565b915061115882611117565b602082019050919050565b6000602082019050818103600083015261117c81611140565b9050919050565b7f45524332303a20617070726f76652066726f6d20746865207a65726f2061646460008201527f7265737300000000000000000000000000000000000000000000000000000000602082015250565b60006111df602483610d24565b91506111ea82611183565b604082019050919050565b6000602082019050818103600083015261120e816111d2565b9050919050565b7f4e487b7100000000000000000000000000000000000000000000000000000000600052601160045260246000fd5b600061124f82610e2e565b915061125a83610e2e565b925082820390508181111561127257611271611215565b5b92915050565b600061128382610e2e565b915061128e83610e2e565b92508282019050808211156112a6576112a5611215565b5b92915050565b7f45524332303a20746f74616c20737570706c792065786365656473206d61782060008201527f737570706c790000000000000000000000000000000000000000000000000000602082015250565b6000611308602683610d24565b9150611313826112ac565b604082019050919050565b60006020820190508181036000830152611337816112fb565b9050919050565b7f45524332303a207472616e7366657220616d6f756e742065786365656473206260008201527f616c616e63650000000000000000000000000000000000000000000000000000602082015250565b600061139a602683610d24565b91506113a58261133e565b604082019050919050565b600060208201905081810360008301526113c98161138d565b905091905056fea2646970667358221220906c1d32dc073b0f85f97219a22087df323fe8ceb8e0d3e6f88c0a94df80db8e64736f6c634300081b0033a264697066735822122043c8bdb96e71d4bbeceb39051e0d68b367d3e1f1863fad9200ba1c0e8c6e872764736f6c634300081b0033",
  "linkReferences": {},
  "deployedLinkReferences": {}
}